S01C000054435F54494D454F55545F4558414D504C4531312E737265631E
S113000045C0000053C0000051C000004FC00000B4
S11300104DC000004BC0000049C0000047C00000B4
S113002045C0000043C0000041C000003FC00000C4
S11300303DC000003BC0000039C0000038C00000D3
S113004035C0000033C0000031C000002FC00000E4
S11300502DC000002BC0000029C0000027C00000F4
S113006025C0000023C0000021C000001FC0000004
S11300701DC000001BC0000019C0000017C0000014
S113008015C0000013C0000011C0000011241FBEE1
S1130090CFEFD0E1DEBFCDBF21E0A0E0B1E001C0F1
S11300A01D92AA30B207E1F7BED0DCC0A9CF1F92DF
S11300B00F920FB60F9211240BB60F922F933F930A
S11300C08F939F93EF93FF9390910001809101018F
S11300D080FF18C0E2E0F1E0208131812150310934
S11300E031832083232B71F491602091040130919A
S11300F005012115310511F48E7F04C030930301ED
S11301002093020181FF18C0E2E0F1E024813581EF
S11301102150310935832483232B71F4926020917B
S11301200801309109012115310529F030930701A7
S11301302093060101C08D7F8093010190930001FB
S1130140FF91EF919F918F913F912F910F900BBE53
S11301500F900FBE0F901F90189588E080BF8FE11D
S113016081BF89E083BF82E087BF0895CF93DF9387
S11301701F92CDB7DEB79A019FB79983F89459813E
S1130180E82FF0E0EE0FFF1FEE0FFF1FEE5FFE4FB4
S1130190318320837383628321E030E0B90102C09C
S11301A0660F771F8A95E2F7CB0190910101982B96
S11301B0909301018095909100018923809300011F
S11301C05FBF0F90DF91CF910895AB01CFCF08951A
S11301D0CF93DF931F92CDB7DEB72091000130E0BB
S11301E0082E02C0359527950A94E2F720FF16C021
S11301F09FB79983F894498121E030E0B90102C0A6
S1130200660F771F8A95E2F7CB01809590910001E4
S11302108923809300014FBF81E001C080E00F90EB
S1130220DF91CF91089581B3836081BB96DF789489
S113023060E074E080E0C9DF65E571E081E0C5DF7E
S1130240D1E0CD2F12E080E0C3DF882319F082B320
S11302508D2782BB8C2FBCDF8823A9F382B381272F
S10B026082BBF1CFF894FFCF3B
S9030000FC
