:060000000C9446000C9474
:1000060000000C9400000C9400000C9400000C946A
:1000160000000C9400000C9400000C9400000C945A
:1000260000000C9400000C9400000C9400000C944A
:1000360000000C9400000C9400000C9400000C943A
:1000460000000C9400000C9400000C9400000C942A
:1000560000000C9400000C9400000C9400000C941A
:1000660000000C9400000C9400000C9400000C940A
:1000760000000C9400000C9400000C9400000C94FA
:1000860000000C940000F894EE27ECBBF1E0F5BFFD
:10009600E5BFE0936C00F8E1F1BDE1BD8DE0A2E0C3
:1000A600BB27ED938A95E9F780E090E1A0E0B1E007
:1000B600ED930197E9F78BBFEFEFEDBFE0E1EEBF00
:1000C600C0E0D5E00C946700E0E0EBBBEABBE8BB20
:1000D600E7BBE5BBE4BBE2BBE1BBE3B9E4E0E2B905
:1000E600E0E0E0936200E0936100E0936500E09356
:1000F6006400E0BFE3BFE2BFE1BFEFBDEEBDEDBD13
:10010600ECBDE7BDE6BDEBBDEABDE9BDE8BDE093EC
:100116007900E0937800E5BDE4BDE3BDE0938B0094
:10012600E0938A00E0938900E0938800E0938100E1
:10013600E0938000E0938700E0938600E0938500DB
:10014600E0938400E0938300E0938200E0936A00EA
:10015600EABFE9BFE7BFE0937D00EAB9E0939A0002
:10016600E0E8E8B9E0E0E0BDE6B9EDB9E093740097
:100176001A9A04D01A9802D0FBCFFFCFE4EFF1E031
:10018600FA93EA930C94C700E991F991309639F005
:1001960080EA9FE00197F1F7A8953197C9F708958E
:00000001FF
