:040000000C94540008
:100004000C9400000C9400000C9400000C9400006C
:100014000C9400000C9400000C9400000C9400005C
:100024000C9400000C9400000C9400000C9400004C
:100034000C9400000C9400000C9400000C94AA0092
:100044000C9400000C9487000C9400000C940000A5
:100054000C9400000C9400000C9400000C9400001C
:100064000C9400000C9400000C9400000C9400000C
:100074000C9400000C9400000C9400000C940000FC
:100084000C9400000C9400001027E80364000A009C
:100094000100001000011000010000000100020036
:1000A4009E000000F894EE27ECBBF1E0F5BFE5BF3D
:1000B400E0936C00F8E1F1BDE1BD8DE0A2E0BB2767
:1000C400ED938A95E9F780E090E1A0E0B1E0ED934B
:1000D4000197E9F7E0EAF0E085919591009761F0E6
:1000E400A591B59105901590BF01F00105900D9271
:1000F4000197E1F7FB01F0CF8BBFEFEFEDBFE0E13C
:10010400EEBFC0E0D5E00C94AB00EA93FA93EFB7EE
:10011400EA931A930A931BB10CB1E12FEC7189F4A1
:10012400E52D5394F0E0E050FB4F0083E8E0E51543
:1001340009F455247394E8E0E71519F477246894D6
:1001440020F809911991E991EFBFF991E991189576
:100154001895E0E0EBBBEFEFEABBE0E0E8BBE0E1E1
:10016400E7BBE0E0E5BBE4BBE2BBE1BBE3B9E2B97A
:10017400E0936200E0936100E0936500E093640023
:10018400E0BFE3BFE2BFE1BFEFBDEEBDEDBDECBD3F
:10019400E7BDE6BDEBBDEABDE9BDE8BDE09379008E
:1001A400E0937800E5BDE4BDE3BDE0938B00E0930C
:1001B4008A00E0938900E0938800E0938100E09353
:1001C4008000E0938700E0938600E0938500E0934D
:1001D4008400E0938300E0938200E0936A00EABF26
:1001E400E9BFE1E0E7BFE0E0E0937D00EBB9E8E9D7
:1001F400EAB9E6E0E0939500E0E0E0939000E7E6FA
:10020400E9B9E0E0E0939A00E0E8E8B9E0E0E0BDB5
:10021400E6B9EDB9E09374007894E0E00E94170128
:10022400EFEF0E941701F9CFFFCFEBBBE8EEF3E04D
:10023400FA93EA930C941E01E991F991309639F0FE
:1002440080EA9FE00197F1F7A8953197C9F70895DF
:00000001FF
