:0A0000000C9446000C9400000C94D0
:10000A0000000C9400000C9400000C9400000C9466
:10001A0000000C9400000C9400000C9400000C9456
:10002A0000000C9400000C9400000C9400000C9446
:10003A0000000C9400000C9467000C9400000C94CF
:10004A0000000C9400000C9400000C9400000C9426
:10005A0000000C9400000C9400000C9400000C9416
:10006A0000000C9400000C9400000C9400000C9406
:10007A0000000C9400000C9400000C9400000C94F6
:10008A000000F894EE27ECBBF1E0F5BFE5BFE09382
:10009A006C00F8E1F1BDE1BD8DE0A2E0BB27ED9374
:1000AA008A95E9F780E090E1A0E0B1E0ED9301974D
:1000BA00E9F78BBFEFEFEDBFE0E1EEBFC0E0D5E0BF
:1000CA000C946800189513D07894E2E0F0E0FA9363
:1000DA00EA93E1E0F0E00E94E800E2E0F0E0FA935F
:1000EA00EA93E0E0F0E00E94E800EFCFFFCFE0E023
:1000FA00EBBBEFEFEABBE0E0E8BBE7BBE5BBE4BB89
:10010A00E2BBE1BBE3B9E2B9E0936200E0936100CC
:10011A00E0936500E0936400E0BFE3BFE2BFE1BFA4
:10012A00EFBDEEBDEDBDECBDE7BDE6BDEBBDEABD85
:10013A00E9BDE8BDE0937900E0937800E5BDE4BD50
:10014A00E3BDE0938B00E0938A00E0938900E0939B
:10015A008800E0938100E0938000E0938700E093B9
:10016A008600E0938500E0938400E0938300E093A7
:10017A008200E0936A00EABFE9BFE1E0E7BFE0E09E
:10018A00E0937D00EAB9E0939A00E0E8E8B9E0E09C
:10019A00E0BDE6B9EDB9E09374000895A881B9818C
:1001AA00119739F41BB2EA81A1E00E94FD00E1290E
:1001BA0007C01BB2EA81A1E00E94FD00E095E1219F
:1001CA00EBBB24960895FA93EA93E8DFE8EEF3E0AE
:1001DA00FA93EA930C94F100E991F991309639F087
:1001EA0080EA9FE00197F1F7A8953197C9F708953A
:1001FA00EE230E2EEA2F19F0EE0F0A94E9F708956E
:00000001FF
