:040000000C94460016
:100004000C9400000C9400000C9400000C9400006C
:100014000C9400000C9400000C9400000C9400005C
:100024000C9400000C9400000C9400000C9400004C
:100034000C9400000C9400000C9400000C946700D5
:100044000C9400000C9400000C9400000C9400002C
:100054000C9400000C9400000C9400000C9400001C
:100064000C9400000C9400000C9400000C9400000C
:100074000C9400000C9400000C9400000C940000FC
:100084000C9400000C940000F894EE27ECBBF1E013
:10009400F5BFE5BFE0936C00F8E1F1BDE1BD8DE093
:1000A400A2E0BB27ED938A95E9F780E090E1A0E018
:1000B400B1E0ED930197E9F78BBFEFEFEDBFE0E11E
:1000C400EEBFC0E0D5E00C946800189507D0789492
:1000D400E1E05BD0E0E059D0FBCFFFCFE0E0EBBB49
:1000E400EFEFEABBE0E0E8BBE7BBE5BBE4BBE2BBA8
:1000F400E1BBE3B9E2B9E0936200E0936100E0930D
:100104006500E0936400E0BFE3BFE2BFE1BFEFBD81
:10011400EEBDEDBDECBDE7BDE6BDEBBDEABDE9BDA1
:10012400E8BDE0937900E0937800E5BDE4BDE3BD6C
:10013400E0938B00E0938A00E0938900E0938800C9
:10014400E0938100E0938000E0938700E0938600D1
:10015400E0938500E0938400E0938300E0938200C1
:10016400E0936A00EABFE9BFE1E0E7BFE0E0E093C3
:100174007D00EAB9E0939A00E0E8E8B9E0E0E0BD88
:10018400E6B9EDB9E09374000895EBBBE4EFF1E058
:10019400FA93EA930C94CE00E991F991309639F0F0
:1001A40080EA9FE00197F1F7A8953197C9F7089580
:00000001FF
