:1000000045C0000053C0000051C000004FC00000B8
:100010004DC000004BC0000049C0000047C00000B8
:1000200045C0000043C0000041C000003FC00000C8
:100030003DC000003BC0000039C0000037C00000D8
:1000400068C0000033C0000031C000002FC00000B5
:100050002DC000002BC0000029C0000027C00000F8
:1000600025C0000023C0000021C000001FC0000008
:100070001DC000001BC0000019C0000017C0000018
:1000800015C0000013C0000011C0000011241FBEE5
:10009000CFEFD0E1DEBFCDBF21E0A0E0B1E001C0F5
:1000A0001D92A130B207E1F704D073C0A9CF46C0BA
:1000B0000895FDDF10BE84E083BF87E082BF11BEDC
:1000C00087B7816087BF78941092000194E091B95E
:1000D0001A9A2FEF39E688E1215030408040E1F74D
:1000E00000C0000083B1809583B983B1809583B946
:1000F00083B1809583B983B1809583B91A982FEF26
:1001000039E688E1215030408040E1F700C000002E
:10011000DECF1F920F920FB60F9211248F93F89497
:10012000809100018F5F8093000187E082BF789407
:100130008F910F900FBE0F901F9018958AB31ABA27
:100140008BB38FEF8BBB97B317BA98B388BB94B3BD
:1001500014BA95B385BB91B311BA92B382BB92B175
:1001600012B893B183B9E1E6F0E090811082E2E643
:10017000F0E090818083E4E6F0E08081807E8083FF
:10018000E5E6F0E080818F618083129A1A9815BEAF
:060190000895F894FFCF72
:00000001FF
