:0C0000000C9446000C9400000C940000CE
:10000C000C9400000C9400000C9400000C94000064
:10001C000C9400000C9400000C9400000C94000054
:10002C000C9400000C9400000C9400000C94000044
:10003C000C9400000C9467000C9400000C940000CD
:10004C000C9400000C9400000C9400000C94000024
:10005C000C9400000C9400000C9400000C94000014
:10006C000C9400000C9400000C9400000C94000004
:10007C000C9400000C9400000C9400000C940000F4
:10008C00F894EE27ECBBF1E0F5BFE5BFE0936C0014
:10009C00F8E1F1BDE1BD8DE0A2E0BB27ED938A95BF
:1000AC00E9F780E090E1A0E0B1E0ED930197E9F78A
:1000BC008BBFEFEFEDBFE0E1EEBFC0E0D5E00C94FD
:1000CC008F00AA93BA93EA93FA93EFB7EA93F89452
:1000DC00A0910605AF5FA0930605A43120F0A09176
:1000EC000705A03009F008C0E0E0E09306050C9984
:1000FC0003C0E1E0E0930705A0E0B5E0C3D0E7E082
:10010C00E2BF7894E991EFBFF991E991B991A99186
:10011C001895E0E0EBBBEFEFEABBE0E0E8BBE7BB38
:10012C00E5BBE4BBE2BBE1BBE3B9E2B9E09362003F
:10013C00E0936100E0936500E0936400E0BFE4E0CD
:10014C00E3BFE7E0E2BFE0E0E1BFEFBDEEBDEDBD38
:10015C00ECBDE7BDE6BDEBBDEABDE9BDE8BDE09396
:10016C007900E0937800E5BDE4BDE3BDE0938B003E
:10017C00E0938A00E0938900E0938800E09381008B
:10018C00E0938000E0938700E0938600E093850085
:10019C00E0938400E0938300E0938200E0936A0094
:1001AC00EABFE9BFE1E0E7BFE0E0E0937D00EAB938
:1001BC00E0939A00E0E8E8B9E0E0E0BDE6B9EDB91B
:1001CC00E09374007894A0910005B0910105A93ECC
:1001DC00E3E0BE0720F0A0910705A13009F013C0A1
:1001EC00E0E0E0930005E0930105A2E0B5E04AD021
:1001FC00A4E0B5E047D0EBB3A1E0EA27EBBBDF9A74
:10020C00E0E0E0930905A0910705A13061F4A0910D
:10021C000405B0910505A935E2E0BE0720F0A091D8
:10022C000905A03009F012C0DF98DE98E0E0E093F9
:10023C000705E0930205E0930305E0930405E093C2
:10024C000505E0930805E1E0E0930905A091070599
:10025C00A13061F4A0910205B0910305AD32E1E04B
:10026C00BE0720F0A0910805A03009F009C0E0E01D
:10027C00E0930205E0930305DE9AE1E0E0930805C4
:10028C00A2CFFFCFED91FD913196FE93EE930895A1
:00000001FF
